:100000000C94E4020C940F0B0C94E80A0C940C036F
:100010000C940C030C940C030C948A0A0C94360B6D
:100020000C940C030C940C030C940C030C940C0314
:100030000C940C030C940C030C940C030C940C0304
:100040000C949E0A0C940C030C9450110C942A11DD
:100050000C940C030C940C030C940C030C940C03E4
:100060000C940C030C940C0354534D3A494E4954D0
:100070000A0000000008000201000003040700005D
:100080000000000000002154534D3A494E49543AB3
:10009000545350204641494C0A0054534D3A494E5E
:1000A00049543A545350204F4B0A0054534D3A464A
:1000B0005041520A002154534D3A465041523A4E53
:1000C0004F205245504C590A002154534D3A465046
:1000D00041523A4641494C0A0054534D3A46504128
:1000E000523A4F4B0A0054534D3A49443A52455103
:1000F0000A0054534D3A49440A002154534D3A4999
:10010000443A4641494C0A0054534D3A49443A4F07
:100110004B0A0054534D3A55504C0A002154534D4C
:100120003A55504C3A4641494C0A0054534D3A55C1
:10013000504C3A444757432C4F3D25642C4E3D25A7
:10014000640A0054534D3A55504C3A4F4B0A0054F0
:10015000534D3A52454144593A49443D25642C5047
:1001600041523D25642C4449533D25640A002154E5
:10017000534D3A52454144593A55504C2046414915
:100180004C2C534E500A0054534D3A4641494C3A78
:100190005044540A0054534D3A4641494C3A434E58
:1001A000543D25640A0054534D3A4641494C3A5255
:1001B000452D494E49540A004D434F3A50494D3A56
:1001C0004E4F4445205245473D25640A0021545373
:1001D000463A4D53473A52454C204D53472C4E52C8
:1001E00045500A005453463A4D53473A42430A0099
:1001F0005453463A4D53473A41434B0A0021545316
:10020000463A4D53473A504F4E4720524543562C9D
:10021000494E4143544956450A005453463A4D53BA
:10022000473A504F4E4720524543562C48503D25A3
:10023000640A005453463A4D53473A50494E474595
:10024000442C49443D25642C48503D25640A002136
:100250005453463A4D53473A4650415220494E4135
:1002600043544956450A005453463A4D53473A467B
:10027000504152204F4B2C49443D25642C443D2590
:10028000640A005453463A4D53473A41434B205277
:1002900045510A00215453463A4D53473A5056456A
:1002A000522C25643D25640A00215453463A4D538F
:1002B000473A4C454E2C2564213D25640A00545391
:1002C000463A4D53473A524541442C25642D256406
:1002D0002D25642C733D25642C633D25642C743DD1
:1002E00025642C70743D25642C6C3D25642C73674B
:1002F0003D25643A25730A004D434F3A5245473A2B
:100300005245510A005453463A5755523A4D533DBF
:10031000256C750A004D434F3A42474E3A494E49C3
:1003200054204F4B2C5453503D25640A004D434FED
:100330003A42474E3A5354500A004D434F3A4247CF
:100340004E3A4246520A004D434F3A42474E3A49CE
:100350004E4954204E4F44452C43503D524E4E4E34
:10036000412D2D2C5645523D322E312E310A002181
:100370004D434F3A534E443A4E4F4445204E4F540E
:10038000205245470A004D434F3A534C503A575577
:10039000503D25640A004D434F3A534C503A545057
:1003A000440A004D434F3A534C503A4D533D256C4F
:1003B000750A00214D434F3A534C503A544E520A5D
:1003C000004D434F3A534C503A4D533D256C752CDC
:1003D000534D533D25642C49313D25642C4D313D11
:1003E00025642C49323D25642C4D323D25640A009C
:1003F00000000000240027002A0000000000230065
:100400002600290000000000250028002B0004041D
:1004100004040404040402020202020203030303AC
:100420000303010204081020408001020408102088
:100430000102040810205453463A5349443A4F4BA2
:100440002C49443D25640A00215453463A534944FB
:100450003A4641494C2C49443D25640A00257354D1
:1004600053463A4D53473A53454E442C25642D2567
:10047000642D25642D25642C733D25642C633D2556
:10048000642C743D25642C70743D25642C6C3D25D2
:10049000642C73673D25642C66743D25642C73744D
:1004A0003D25733A25730A00215453463A52544568
:1004B0003A46504152204143544956450A0021547E
:1004C00053463A534E443A544E520A0000407A1072
:1004D000F35A00A0724E18090010A5D4E80000E8F5
:1004E0007648170000E40B54020000CA9A3B000053
:1004F00000E1F505000080969800000040420F00E2
:100500000000A08601000000102700000000E803A2
:10051000000000006400000000000A00000000006D
:100520000100000000002C76D888DC674F0823DF2C
:10053000C1DFAE59E1B1B796E5E3E453C63AE651FF
:10054000997696E8E6C28426EB898C9B62ED407C26
:100550006FFCEFBC9C9F40F2BAA56FA5F490055AC2
:100560002AF75C936B6CF9676DC11BFCE0E40D47E7
:10057000FEF520E6B500D0ED902E0300943577050A
:100580000080841E080000204E0A000000C80C33C2
:100590003333330F986E12831141EF8D2114893B51
:1005A000E65516CFFEE6DB18D1844B381BF77C1DD1
:1005B000901DA4BBE424203284725E228100C9F124
:1005C00024ECA1E53D27AA1411241FBECFEFD8E0EB
:1005D000DEBFCDBF11E0A0E0B1E0E8EBF7E302C081
:1005E00005900D92A237B107D9F722E0A2E7B1E05A
:1005F00001C01D92A13EB207E1F712E0C4EED2E0C5
:1006000004C02197FE010E945F15C33ED107C9F7C0
:100610000E94B1130C94DA1B0C9400000F931F93EB
:100620000E94BC1100917D0110917E0120917F01FB
:1006300030918001601B710B820B930B1F910F9106
:1006400008959C0180917B0190917C018217930712
:1006500051F0909185019F719093850130937C01B9
:1006600020937B0105C080918501805E8093850188
:10067000E0917B01F0917C010190F081E02D3097B9
:1006800009F009950E94BC1160937D0170937E0171
:1006900080937F01909380010895EF92FF920F93D2
:1006A0001F93CF93DF93CDB7DEB7C857D1090FB6ED
:1006B000F894DEBF0FBECDBF8E010F571F4FF8015C
:1006C000E190F1908F010E94BC114AE00E94291034
:1006D00086E691E00E9417109801A70168E770E094
:1006E000CE0101960E945116CE0101960E9417106C
:1006F0008BEC91E00E94E60EC858DF4F0FB6F894DD
:10070000DEBF0FBECDBFDF91CF911F910F91FF9044
:10071000EF9008952F923F924F925F926F927F9247
:100720008F929F92AF92BF92CF92DF92EF92FF9201
:100730000F931F93CF93DF93CDB7DEB72C970FB6F0
:10074000F894DEBF0FBECDBFE0917B01F0917C013C
:100750000280F381E02D309709F0099580918501A1
:1007600084FB222720F9298784FF59C386E0D82EED
:1007700090E0E92E90E0F92E9E012F5F3F4F3C83E1
:100780002B8320EA822E26E8922EAA24A394B12C51
:1007900034EB432E3BE2532E31E1632E712C21E0EA
:1007A00041E060E070E087E10E94FE1180FD37C308
:1007B000DA94DD2009F433C3E114F10421F081E07F
:1007C00090E00E94000021E041E060E070E080E6FF
:1007D0000E94FE11C82E30E2381720F482EE0E94EB
:1007E0004E12C12C21E04C2D6CEB72E081E60E9490
:1007F000FE1160E487E20E9430128091BF02282F30
:100800002695269526952A3108F029E182FD03C018
:1008100077E0720F01C070E28091C00287708D8313
:100820001091C1020091BD022090BC023090BE0226
:100830008CEB92E02A877C870E94670F2A85422FE3
:1008400050E09F938F938091BF0282FB882780F9AD
:100850001F928F931F922F938091C002829586954D
:1008600087701F928F931F921F931F922D812F933A
:100870008091C2021F928F931F923F921F922F92DC
:100880001F920F93AEEBB2E0BF93AF934A875B87A3
:100890000E944D030FB6F894DEBF0FBECDBF7C851E
:1008A0004A855B85C71679F0E114F10429F08CE6DE
:1008B00090E00E9400007C851F927F931F92CF9250
:1008C00089EA92E017C02091BF02822F83708230A4
:1008D000E1F0E114F10421F08DE690E00E940000C7
:1008E0001F9282E08F938091BF0283701F928F933B
:1008F00084E992E09F938F930E944D030F900F9095
:100900000F900F900F900F904ACF809186018068D2
:10091000809386018091C801381259C0822F869534
:10092000869586958A3108F089E138E0839FC00179
:1009300011242770822B8093BF02FA01E454FD4FEB
:1009400017828091C00283FF21C083E892E09F93C9
:100950008F930E944D0381E2ECEBF2E0ABE9B2E051
:1009600001900D928A95E1F780919F02877F8061C7
:1009700080939F028091C80180939C0200939D0206
:100980008BE992E00E944C130F900F909091C0025F
:1009900094FD0BC02D81233081F48091C10221EFA1
:1009A000280F233008F055C0FACEA0EFB1E0BF9376
:1009B000AF930E944D030F900F9020E030E0232B67
:1009C00009F4EDCE8CEB92E00E940000E8CE3FEF00
:1009D000331236C0A4EEB1E0BF93AF930E944D0333
:1009E0000F900F902D81233031F58091850182FF8A
:1009F00003C0173009F4D3CE183009F4D0CE143127
:100A000009F0CDCE8091C9012812C9CE0E94BC1137
:100A10007370882799270E9482111091C90125E1DE
:100A200043E06FEF802F0E94390F612F0E945F0B10
:100A30000E945412B4CE8091C9012812B0CEBDCF0D
:100A4000ADECB1E0BF93AF930E944D030F900F90B8
:100A5000A6CE143029F40E9404100E945B139FCE8E
:100A6000183011F51091850110FF1BC00E94041071
:100A70008F3F09F494CE8F5F8F3F09F490CE909111
:100A8000CA01891708F08BCE11FD89CE8093CA0167
:100A90000093C9011F928F931F920F9387E692E0F4
:100AA00029CF8FE492E030C01831C1F40E940410C5
:100AB0001F928F931F920F9383E392E09F938F93E4
:100AC0000E944D0329E143E06FEF802F0E94390F10
:100AD00061E00E945F0B0E94541210CF1931B9F4EB
:100AE0008091850183FF0EC0877F809385010E94DE
:100AF0000410809387011F928F938AE192E09F9365
:100B00008F933CC08DEF91E09F938F939DCF209169
:100B1000BD02211180C18D3099F480E090E0892BD5
:100B200021F08BE090E00E94000098E088E10FB691
:100B3000F894A895809360000FBE90936000FFCF5B
:100B40008B3119F50E94041091E0811101C090E0F1
:100B500080917A0190FB80F980937A01E114F1048D
:100B600021F08AE090E00E94000080917A0181707B
:100B70001F928F93A8EBB1E0BF93AF930E944D03F8
:100B80000F900F900F900F900ACE8630A9F490919D
:100B9000C302992329F081E09D3419F080E001C05F
:100BA00089858093790141E050E063E071E089E755
:100BB00091E00E94811BF3CD833119F40E94C40B94
:100BC000EECD8231F1F40E940E036D837E838F831C
:100BD000988726E143E06FEF80E00E94390FFC0127
:100BE00084818F71806A848383818770806283832C
:100BF0008D819E81AF81B88587839087A187B287D9
:100C0000DAC0813001F5A0E0B0E0AB2B09F4C7CD2C
:100C1000929596959770953049F46091C3027091C2
:100C2000C4028091C5029091C6020AC0911105C00C
:100C300083EC92E00E94B71503C060E070E0CB0146
:100C40000E940000ACCD8A3009F4A9CD8C3109F0A6
:100C5000B4CE8091C302823509F4A1CD8635B1F5B9
:100C60008EE480937C0066E470E080E090E00E9477
:100C7000821180917A00806480937A0080917A005A
:100C800086FDFCCF20907800309079002CE143E085
:100C90006FEF80E00E94390F8C01FC0184818F711D
:100CA000806684838381877080618383910140E0C3
:100CB00050E0C301B2010E943D15D80118963C9343
:100CC0002E931797C8010E944C1369CD863409F002
:100CD00052C0F8948FEF86BB10928500109284006A
:100CE0001092800010928200909160002DE088E1C7
:100CF0000FB6F894A895809360000FBE2093600013
:100D000080916000806480936000A89585E0809366
:100D100081008091600087FFFCCF10928100A89530
:100D20008091600088618093600090936000789467
:100D300020908400309085002CE143E06FEF80E04C
:100D40000E94390F8C01FC0184818F71806684833D
:100D50008381877080618383C101A0E0B0E0BC0122
:100D6000CD014BE0660F771F881F991F4A95D1F779
:100D7000A5019401A0CF8D3401F50091DD02109101
:100D8000DE020115110511F401EE12E02CE143E041
:100D90006FEF80E00E94390FFC0184818F718066C3
:100DA000848383818770806183838B819C81801B96
:100DB000910B90878783CF0186CF853409F0EFCCE4
:100DC0002CE143E06FEF80E00E94390F6CE371E0AB
:100DD0000E946B0B0E944C1300E010E06FEFC80103
:100DE0000E94911B0F5F1F4F0D39B1E01B07B1F738
:100DF00080E090E0892B21F08BE090E00E940000E1
:100E000098E088E10FB6F894A895809360000FBE33
:100E100090936000FFCF8A3109F0CFCDC0CC2C96E3
:100E20000FB6F894DEBF0FBECDBFDF91CF911F91FB
:100E30000F91FF90EF90DF90CF90BF90AF909F9079
:100E40008F907F906F905F904F903F902F9008957C
:100E50000F931F930E940E03209186012077203765
:100E600029F000E117E220E030E004C000E61AEECD
:100E700020E030E0061717072807390770F486EAE4
:100E800091E09F938F930E944D030F900F908BE101
:100E900091E01F910F910C9421031F910F910895E0
:100EA00080918601982F9077903759F0982F9295DE
:100EB0009F709F5F97709295907F8F78892B80931A
:100EC000860180918601829587701F928F9385E9B4
:100ED00091E09F938F930E944D03809185018B7FBA
:100EE0008F7E809385010F900F900F900F9080E080
:100EF00090E0892B21F087E690E00E94000087E8CF
:100F000091E09F938F930E944D030F900F900C944C
:100F1000440C809186018F70863060F08EE691E0FF
:100F20009F938F930E944D030F900F9087E191E064
:100F30000C94210308958091CA011F928F93809190
:100F4000C9011F928F938091C8011F928F938FE4E4
:100F500091E09F938F930E944D038091850184605F
:100F60008093850180918601807880938601E0914D
:100F70007701F09178018DB79EB708960FB6F89477
:100F80009EBF0FBE8DBF309709F0099408958091E0
:100F900087018F3F79F10E94BC11609381017093AA
:100FA0008201809383019093840183E491E09F9375
:100FB0008F930E944D03909187018091CA010F90F9
:100FC0000F909817A1F01F929F931F928F938BE21F
:100FD00091E09F938F930E944D03809187018093AE
:100FE000CA010F900F900F900F900F900F9083E118
:100FF00091E025C00E940E03613D77408105910577
:1010000000F180918501803618F48FE091E017C0DF
:101010008CE191E09F938F930E944D038091850115
:10102000877F809385010F900F9080E090E0892B5F
:1010300021F08AE690E00E94000087E191E00C94A4
:101040002103089583E191E09F938F930E944D03C4
:101050000F900F9080E090E0892B21F088E090E0E5
:101060000E9400008FEF8093870180918501886046
:101070008093850128E143E06FEF80E00E94390F03
:1010800061E00E945F0B0C9454128091C8018F3F65
:1010900099F088E091E09F938F930E944D030F9009
:1010A0000F9080E090E0892B21F087E090E00E9493
:1010B00000008FE091E020C00E940E03613D774068
:1010C00081059105D8F080918501803618F48BE078
:1010D00091E012C08AEF90E09F938F930E944D039E
:1010E0000F900F9080E090E0892B21F089E690E04E
:1010F0000E94000087E091E00C942103089582EFA4
:1011000090E09F938F930E944D030F900F908091DA
:10111000C8018F3FE1F480E090E0892B21F086E068
:1011200090E00E94000086EE90E09F938F930E94D3
:101130004D0323E043E06FEF80E00E94390F6AE641
:1011400071E00E946B0B0F900F900C945412089555
:101150000E940E03613D77408105910520F4809146
:10116000850181FF08958091C9018F3FC1F089ED0C
:1011700090E09F938F930E944D03809185018E7F15
:10118000809385010F900F9080E090E0892B21F0F3
:1011900085E090E00E9400008BE091E021C080910A
:1011A0008501803658F485EB90E09F938F930E94E1
:1011B0004D030F900F9087E191E012C089EC90E011
:1011C0009F938F930E944D030F900F9080E090E0CB
:1011D000892B21F088E690E00E94000087E091E0F2
:1011E0000C9421038BEA90E09F938F930E944D0310
:1011F0000F900F9080E090E0892B21F084E090E048
:101200000E94000080918501897F81608093850123
:101210008FEF8093CA018093C90127E043E06FEF0D
:101220000E94390F6AE671E00E946B0B0C94541215
:10123000CF93219A229ACFB7F894809176018111A9
:1012400063C088E194E0FC0124914CE254E0FA018F
:10125000649130E0220F331F20513C4FF901A591DA
:10126000B4912C91622309F040C0ECE7F0E02491A6
:10127000FA014491FC0194919923B9F1222339F1A7
:10128000233091F038F42130A9F0223001F584B5F3
:101290008F7D12C0273091F02830A1F02430B9F4AE
:1012A000809180008F7D03C0809180008F77809334
:1012B00080000DC084B58F7784BD09C08091B000D7
:1012C0008F7703C08091B0008F7D8093B000E92FAD
:1012D000F0E0EE0FFF1FEC5FFB4FA591B4918FB7CD
:1012E000F8949C91492B4C938FBF8AE00E94480F41
:1012F0008CB580618CBD8CB580648CBD8DE00E9406
:10130000480F8BE00E94480F809176018F5F809399
:101310007601CFBF29982A9A6EE080E20E943012AF
:1013200065E070E080E090E00E94821163E083E27B
:101330000E9430126FE584E20E9430126CE485E274
:101340000E94301267E286E20E94301263E780E575
:101350000E94301266E08DE30E94301221E041E0ED
:1013600060E070E086E00E94FE11C82F21E041E0BD
:1013700060E070E085E00E94FE118C3409F049C005
:10138000C73209F046C062E082E20E94301260E09B
:1013900081E20E94301263E08CE30E9430128FEFF2
:1013A0008093020120E045E062E071E08BE20E9460
:1013B000FE1120E045E062E071E08AE20E94FE1149
:1013C00020E045E062E071E080E30E94FE1182EEE1
:1013D0000E944E1281EE0E944E1260E787E20E9448
:1013E00030128AE990E09F938F930E944D03809181
:1013F00085018061809385018091C8010F900F90D5
:101400008F3FC1F00E945B13811114C087E091E00F
:1014100013C086E890E09F938F930E944D030F9036
:101420000F9080E090E0892B89F387E690E00E949E
:101430000000ECCF87E191E0CF910C94210388E686
:1014400090E09F938F930E944D03E5E8F1E0808147
:10145000877F8F7E8083109281011092820110928B
:101460008301109284010F900F9043E050E060E000
:1014700070E088EC91E00C94711B20917A002F773A
:1014800020937A00309160008A309105B1F083FD9D
:1014900002C028E001C028E28770822B98E10FB6D5
:1014A000F894A895909360000FBE8093600080919F
:1014B00060008065809360000BC00FB6F894A8951B
:1014C00080916000886180936000109260000FBE80
:1014D00083B7817F846083BFF89483B7816083BFC3
:1014E00085B7806685BF8F7D85BF7894889583B7E3
:1014F0008E7F83BFF894A895809160008861809367
:10150000600030936000789480917A0080688093C6
:101510007A0008951F920F920FB60F9211240F9028
:101520000FBE0F901F901895089581E0909179015A
:10153000911101C080E08093200108951F920F92C5
:101540000FB60F9211242F933F938F939F93AF93D6
:10155000BF9380918D0190918E01A0918F01B091E8
:10156000900130918C0123E0230F2D3720F4019658
:10157000A11DB11D05C026E8230F0296A11DB11DB6
:1015800020938C0180938D0190938E01A0938F0105
:10159000B09390018091910190919201A09193015B
:1015A000B09194010196A11DB11D8093910190937A
:1015B0009201A0939301B0939401BF91AF919F9139
:1015C0008F913F912F910F900FBE0F901F90189504
:1015D0001F920F920FB60F9211242F933F934F93A8
:1015E0005F936F937F938F939F93AF93BF93EF938B
:1015F000FF93E0912301F09124010995FF91EF9170
:10160000BF91AF919F918F917F916F915F914F911A
:101610003F912F910F900FBE0F901F9018951F9222
:101620000F920FB60F9211242F933F934F935F9316
:101630006F937F938F939F93AF93BF93EF93FF939A
:10164000E0912101F09122010995FF91EF91BF9165
:10165000AF919F918F917F916F915F914F913F914A
:101660002F910F900FBE0F901F9018951F920F9201
:101670000FB60F9211242F933F934F935F936F9365
:101680007F938F939F93AF93BF93EF93FF93E091DB
:101690008A01F0918B01309709F00995FF91EF9144
:1016A000BF91AF919F918F917F916F915F914F917A
:1016B0003F912F910F900FBE0F901F901895FC0136
:1016C000838187708860838384818F718062848343
:1016D0006783CF0108950F931F93CF93DF93EC019E
:1016E0006115710561F0FB0101900020E9F7319768
:1016F000E61BF70BE931F10518F0E9E101C0E0E084
:101700000E2F10E0C80123E0880F991F2A95E1F7FA
:101710009B819770892B8B838C818F718C83EE23B7
:1017200029F0A801CE0107960E946A15FE01E00F7C
:10173000F11F1782CE01DF91CF911F910F91089574
:101740002BE043E06FEF80E00E94390F6FE371E020
:101750000E946B0B0E944C132CE043E06FEF80E083
:101760000E94390F6FE471E00E946B0B0E944C13D2
:101770002FE040E061E080E00E94390F6AE671E00E
:101780000E946B0B0C944C13CF9380E090E0892B5C
:1017900021F08CE090E00E9400002FE043E06FEF2A
:1017A00080E00E94390F6AE671E00E946B0B809125
:1017B0009E028770806180939E0280919F028F714C
:1017C000806C80939F0281E08093A2021092A3021A
:1017D0008BE992E00E944C138FE00E94C81121E136
:1017E00040E06FEF80E00E94390F63E571E00E94F6
:1017F0006B0B0E944C13C091C90126E043E06FEFD0
:1018000080E00E94390F6C2F0E945F0B0E944C13E6
:1018100086E00E94C811CF910C94A00BCF938091C9
:101820007A0181FD2FC00E94C40B88EF92E09F9344
:101830008F930E944D030F900F9080E090E0892BD2
:1018400021F089E090E00E94000080917A0181609F
:1018500080937A01C4E02AE143E06FEF80E00E94C8
:10186000390F62E00E945F0B0E944C138BE10E94D3
:10187000C811811102C0C15071F780917A01826054
:1018800080937A01CF91089529986CE080E20C94BE
:101890003012CF92DF92EF92FF9280912001882345
:1018A00039F00E946A10FC014C9669E370E007C0B1
:1018B0000E946A10FC01875B9F4F62E970E00E9402
:1018C000291521E030E0EF2B11F420E030E07B011E
:1018D0006217730708F4790181E691E00E941710FE
:1018E000C701A0E0B0E04AE0BC01CD010E94291090
:1018F00080912001811103C08DE591E002C089E54E
:1019000091E00E94171088E691E00E9417108091E4
:10191000880190918901E816F90649F180916C02DD
:1019200090916B029770906190936B02F0927002AD
:10193000E0926F029091C801909369028071816476
:1019400080936C0280917A0180FF05C088E692E066
:101950000E944C1308C08FE693E09F938F930E94E0
:101960004D030F900F90F0928901E09288011F9231
:101970008FEF8F931F928F931F928F931F928F934E
:101980001F921F921F921F9283E18F9388E88F937B
:1019900081EC93E09F938F930E944D03809185018A
:1019A0002DB73EB7205F3F4F0FB6F8943EBF0FBE36
:1019B0002DBF82FD25C083EB93E09F938F930E9400
:1019C0004D030E94BC116B017C010F900F9080E0D1
:1019D00090E0DC012091850122FDADC08838934163
:1019E000A105B10508F022C1A8950E948A030E94B2
:1019F000BC11DC01CB018C199D09AE09BF09EACFEE
:101A000088E8C82E83E1D82EE12CF12C86E993E0FA
:101A10009F938F930E944D030E94440C0F900F9050
:101A200080E090E0892B21F08EE090E00E940000A1
:101A30008BEC91E00E94E60E80911F0180911F01C6
:101A40008F3F41F480EAC8168FE0D806E104F10424
:101A500008F093C080911F018F3F41F420EDC21622
:101A600027E0D206E104F10408F092C080911F0142
:101A70008F3F41F438EEC31633E0D306E104F1049E
:101A800008F091C080911F018F3F41F484EFC81688
:101A900081E0D806E104F10408F090C080911F01B4
:101AA0008F3F39F42AEFC216D104E104F10408F0A3
:101AB00090C080911F018F3F39F43DE7C316D104D8
:101AC000E104F10408F08FC080911F018F3F39F4C9
:101AD00080E4C816D104E104F10408F08EC08091BE
:101AE0001F018F3F39F420E2C216D104E104F10452
:101AF00008F08DC080911F018F3F39F430E1C3168B
:101B0000D104E104F10408F08CC080E090E0892B5E
:101B100021F08FE090E00E9400008FEF8F938F9371
:101B200086E893E09F938F930E944D030F900F9050
:101B30000F900F907BC0883823E19207A105B10573
:101B400008F074C028E8C22E23E1D22EE12CF12C3B
:101B5000C81AD90AEA0AFB0AFF92EF92DF92CF92E3
:101B600083EA93E09F938F930E944D030F900F9011
:101B70000F900F900F900F9049CF88E090E00E9457
:101B80003D0A30EAC31A3FE0D30AE108F10862CF08
:101B900087E090E00E943D0A80EDC81A87E0D80AED
:101BA000E108F10863CF86E090E00E943D0A28EE4C
:101BB000C21A23E0D20AE108F10864CF85E090E080
:101BC0000E943D0A34EFC31A31E0D30AE108F1085C
:101BD00065CF84E090E00E943D0A8AEFC81AD108E0
:101BE000E108F10866CF83E090E00E943D0A28E713
:101BF000C21AD108E108F10867CF82E090E00E94A4
:101C00003D0A3CE3C31AD108E108F10868CF81E03E
:101C100090E00E943D0A8EE1C81AD108E108F1085F
:101C200069CF80E090E00E943D0A6FCFFF90EF9077
:101C3000DF90CF900895CF92DF92EF92FF920F93B3
:101C40001F93CF93DF936C017A018B01C0E0D0E04A
:101C5000CE15DF0589F0D8016D918D01D601ED918A
:101C6000FC910190F081E02DC6010995892B11F4BA
:101C70007E0102C02196ECCFC701DF91CF911F9169
:101C80000F91FF90EF90DF90CF900895FC01918D20
:101C9000828D981761F0828DDF01A80FB11D5D96CE
:101CA0008C91928D9F5F9F73928F90E008958FEF3C
:101CB0009FEF0895FC01918D828D981731F0828DF0
:101CC000E80FF11D858D90E008958FEF9FEF089547
:101CD000FC01918D228D892F90E0805C9F4F821BAB
:101CE00091098F73992708958BEC91E00E94680EFB
:101CF00021E0892B09F420E0822F0895FC01848DD6
:101D0000DF01A80FB11DA35ABF4F2C91848D90E025
:101D100001968F739927848FA689B7892C93A08900
:101D2000B1898C9180648C93938D848D981306C0B7
:101D30000288F389E02D80818F7D80830895EF9262
:101D4000FF920F931F93CF93DF93EC0181E0888F75
:101D50009B8D8C8D981305C0E889F989808185FD5C
:101D600024C0F62E0B8D10E00F5F1F4F0F7311274D
:101D7000E02E8C8DE8120CC00FB607FCFACFE88974
:101D8000F989808185FFF5CFCE010E947E0EF1CFCB
:101D90008B8DFE01E80FF11DE35AFF4FF0820B8F90
:101DA000EA89FB898081806207C0EE89FF896083B0
:101DB000E889F98980818064808381E090E0DF9107
:101DC000CF911F910F91FF90EF900895CF93DF93E4
:101DD000EC01888D8823C9F0EA89FB89808185FD23
:101DE00005C0A889B9898C9186FD0FC00FB607FC84
:101DF000F5CF808185FFF2CFA889B9898C9185FFC5
:101E0000EDCFCE010E947E0EE7CFDF91CF910895F6
:101E100080E090E0892B29F00E94740E81110C94CF
:101E2000000008953FB7F89480919101909192013C
:101E3000A0919301B091940126B5A89B05C02F3FB6
:101E400019F00196A11DB11D3FBFBA2FA92F982FE0
:101E50008827820F911DA11DB11DBC01CD0142E05B
:101E6000660F771F881F991F4A95D1F708950E9422
:101E70006515EBE9F2E09091C80191838283668356
:101E8000258347708481807E482B4483CF01089549
:101E900090E0FC01EE5DFB4F2491FC01E25FFB4F03
:101EA0008491882399F090E0880F991FFC01E051FC
:101EB000FC4FA591B491FC01EC5FFB4F859194918F
:101EC0008FB7F894EC91E22BEC938FBF08950F93AA
:101ED0001F93CF93DF93EC018C8182958695877059
:101EE00091F44B8146954695469550E0BE01695F59
:101EF0007F4F85E991E00E946A15EB81E695E695B2
:101F0000E695F0E077C0813031F48F814AE065E9F1
:101F100071E090E007C0823041F44AE065E971E089
:101F20008F8198850E94DE1568C0833041F44AE0B5
:101F300065E971E08F8198850E9437165EC0843014
:101F400051F46F81788589859A852AE045E951E0C9
:101F50000E94E91552C0853051F46F8178858985DA
:101F60009A852AE045E951E00E94151646C087305F
:101F700071F42B85293008F028E06F8178858985F8
:101F80009A8505E911E042E00E94791536C0863055
:101F9000A1F520E0EB81E695E695E6952E1738F55C
:101FA000E22FF0E0AF01440F551FDA01AB56BE4FF0
:101FB000EC0FFD1F8781082E000C990B34E09595DE
:101FC00087953A95E1F78F708A3010F4805D01C0F3
:101FD000895C8C93DA01AA56BE4F87818F708A3054
:101FE00010F4805D01C0895C8C932F5FD3CFF0E04B
:101FF000EE0FFF1FEB56FE4F108285E991E0DF9157
:10200000CF911F910F9108958091C002829586957E
:102010008770813019F48091C3020895811105C041
:1020200083EC92E00E949915089580E0089500974E
:1020300069F0FC0101900020E9F73197AF01481BDE
:10204000590BBC018BEC91E00C941B0E80E090E0EE
:1020500008958F929F92AF92BF920F931F93CF9349
:10206000DF93CDB7DEB7A1970FB6F894DEBF0FBEF2
:10207000CDBF19A2423008F44AE08E010F5D1F4F18
:10208000842E912CA12CB12CA50194010E943D1508
:10209000E62FB901CA0101501109EA3014F4E05DDC
:1020A00001C0E95CD801EC93232B242B252B61F78D
:1020B000C8010E941710A1960FB6F894DEBF0FBE9C
:1020C000CDBFDF91CF911F910F91BF90AF909F90A7
:1020D0008F9008950F931F93E0919102F0919202D7
:1020E000908180918D02892B8083E0918F02F09105
:1020F0009002908180918D028095892380838BE06E
:1021000090E00197F1F7E0918F02F09190029081B9
:1021100080918D02892B808383E290E00197F1F713
:10212000E0918F02F0919002908180918D028095D4
:1021300089238083E0919102F091920290818091B5
:102140008D028095892380830E94120FDC01CB01D0
:10215000805B994BAF4FBF4F80939702909398024B
:10216000A0939902B0939A02E0919302F0919402A5
:10217000908180918E028923F9F00E94120F0091C4
:102180009702109198022091990230919A020617B5
:1021900017072807390740F70FC00E94120F009158
:1021A0009702109198022091990230919A02061795
:1021B000170728073907A8F1E0919302F0919402DC
:1021C000908180918E02892341F30E94120F209109
:1021D000950230919602DC01CB01820F931FA11D65
:1021E000B11D8093970290939802A0939902B093A7
:1021F0009A02E0919302F0919402908180918E0274
:10220000892391F00E94120F009197021091980279
:102210002091990230919A0206171707280739076B
:1022200040F780E090E013C00E94120F20919502C9
:1022300030919602A90145505109209197023091A1
:102240009802FA01E21BF30BCF01860F971F1F9133
:102250000F9108951F920F920FB60F9211242F9392
:102260003F934F935F936F937F938F939F93AF931E
:10227000BF93EF93FF938BEC91E00E947E0EFF9152
:10228000EF91BF91AF919F918F917F916F915F91EE
:102290004F913F912F910F900FBE0F901F90189567
:1022A0001F920F920FB60F9211242F938F939F932B
:1022B000EF93FF93E091DB01F091DC018081E091ED
:1022C000E101F091E20182FD12C090818091E40170
:1022D0008F5F8F732091E501821751F0E091E40147
:1022E000F0E0E553FE4F958F8093E40101C08081BB
:1022F000FF91EF919F918F912F910F900FBE0F90B3
:102300001F9018958F929F92AF92BF92CF92DF92BB
:10231000EF92FF926B017C010E94120F4B015C0156
:10232000C114D104E104F104F1F00E94120FDC01A8
:10233000CB0188199909AA09BB09883E9340A105D8
:10234000B10570F321E0C21AD108E108F10888EE66
:10235000880E83E0981EA11CB11CC114D104E104B5
:10236000F10419F7DDCFFF90EF90DF90CF90BF9091
:10237000AF909F908F9008952FB7F89460918D0142
:1023800070918E0180918F01909190012FBF0895DF
:10239000CF92DF92EF92FF92CF93DF93D82F0E94DC
:1023A000BC116B017C0181E0D11180E08093C102FE
:1023B000C0E00E94BC11AB01BC014C195D096E0963
:1023C0007F09403D57406105710580F4C1110EC081
:1023D000A8950E948A039091C0029770933049F7A4
:1023E000C1E08091C1028D13E3CFE3CF8C2FDF9149
:1023F000CF91FF90EF90DF90CF90089591E59CBD35
:1024000091E09DBD2A98E3E2F0E03197F1F78EBDAF
:1024100000000DB407FEFDCF8EB5FB019FEF4150CC
:10242000C8F0222361F09EBD00000DB407FEFDCF71
:102430008EB56115710599F380833196F0CFDF0178
:10244000119680818EBD00000DB407FEFDCF8EB5C4
:10245000FD01E5CF2A9AE3E2F0E03197F1F7089524
:10246000CF93DF931F92CDB7DEB7698320E041E0C1
:10247000BE016F5F7F4F0E94FE110F90DF91CF91E1
:1024800008956FE080E20E943012609125016F3F55
:1024900019F08AE20E943012299A089520E040E063
:1024A00060E070E00C94FE11AF92BF92CF92DF9289
:1024B000EF92FF920F931F93CF93DF93EC018A81EA
:1024C0009091850190FF0CC08F3F79F088EA94E0ED
:1024D0009F938F930E944D030F900F9010E0D0C0F8
:1024E0008F3F19F00091C90101C00FEF8091C80121
:1024F00088834B8142FD06C046954695469517E078
:10250000140F01C010E280E090E0892B21F080E000
:1025100090E00E940000299883E092E00197F1F793
:102520006EE080E20E9430128BE891E00197F1F7B3
:10253000602F8AE20E943012602F80E30E943012E6
:1025400081EE0E944E120F3F11F080EA01C080EB35
:10255000412F113208F040E220E0BE010E94FE113E
:10256000299AE12CF12C8FEF0E944E12182F8073C4
:1025700021F481E0E81AF108B1F7299860E387E2D5
:102580000E94301214FF03C081EE0E944E120E947E
:10259000411215FB112710F981E00F3F09F080E08F
:1025A000182BCE010E94670F111103C0EBE6F1E07A
:1025B00002C0ECE3F1E0609186016F702B8122FB99
:1025C000AA24A0F8322F3695369536952C81B22E56
:1025D000B294B69447E0B422CD802770DE80EA80C2
:1025E000A02FB0E0F8807981111103C040E751E0DD
:1025F00002C04AE651E09F938F93FF93EF931F929F
:102600006F931F92AF921F923F931F92BF921F92A0
:10261000CF921F922F931F92DF921F92EF92BF9340
:10262000AF931F92FF921F927F935F934F938DE51D
:1026300094E09F938F930E944D038DB79EB74E9663
:102640000FB6F8949EBF0FBE8DBF8091C9010813CD
:1026500017C0111110C080E090E0892B21F085E6B1
:1026600090E00E9400008091860191E0980F9F7099
:10267000807F892B03C080918601807F80938601B3
:10268000812FDF91CF911F910F91FF90EF90DF90FD
:10269000CF90BF90AF9008952091850122FD0C94BA
:1026A00054128EEB94E09F938F930E944D030F90F2
:1026B0000F9080E00895CF93C82F8FEF8C0F8E3F3F
:1026C00008F5C093C801C093250163E082E20E942F
:1026D000301261E081E20E9430120E9441126C2FA0
:1026E00080E090E00E94911B1F92CF9386E394E0DC
:1026F0009F938F930E944D030F900F900F900F9018
:1027000081E018C01F92CF9388E494E09F938F9349
:102710000E944D030F900F900F900F9080E090E07B
:10272000892B21F08EE690E00E9400008FEF8093CD
:10273000C80180E0CF910895CF93DF93FC01108210
:1027400011821282148215821682DC0117968AE1A8
:10275000ED0119928A95E9F782E08383DF91CF91A9
:102760000895789484B5826084BD84B5816084BD09
:1027700085B5826085BD85B5816085BD80916E001F
:10278000816080936E001092810080918100826050
:10279000809381008091810081608093810080918D
:1027A00080008160809380008091B100846080937C
:1027B000B1008091B00081608093B00080917A0078
:1027C000846080937A0080917A00826080937A009E
:1027D00080917A00816080937A0080917A0080688D
:1027E00080937A001092C100A89580E090E0892B38
:1027F00011F00E940000E091DB01F091DC0182E029
:102800008083E091D701F091D8011082E091D90145
:10281000F091DA0180E180831092E301E091DF0121
:10282000F091E00186E08083E091DD01F091DE012E
:10283000808180618083E091DD01F091DE01808103
:1028400088608083E091DD01F091DE018081806805
:102850008083E091DD01F091DE0180818F7D8083B6
:1028600087E493E09F938F930E944D0380917A01B8
:102870008D7F80937A010F900F9080E090E0892BFC
:1028800051F08AE393E09F938F930E944D030E943F
:1028900000000F900F9041E050E063E071E089E7A5
:1028A00091E00E94711B6FEF81E090E00E94911B0C
:1028B000809186018F788093860110927C0110921E
:1028C0007B018BE191E00E9421038EE09CE09093DC
:1028D0007801809377011F921F921F921F9285E0CB
:1028E00093E09F938F930E944D030E94BC110F9021
:1028F0000F900F900F900F900F900E94BC110E94AC
:102900008A03A8958091850182FFF7CF8DE293E03D
:102910009F938F930E944D030E94950A0F900F90F2
:102920008091850182FB882780F91F928F9385E132
:1029300093E09F938F930E944D03A8950F900F9063
:102940000F900F90A8950E948A030E94490C0E9444
:10295000080FF8CFEBECF1E01382128288EE93E0DF
:10296000A0E0B0E084839583A683B78380E391E001
:102970009183808385EC90E09587848784EC90E058
:102980009787868780EC90E0918B808B81EC90E03C
:10299000938B828B82EC90E0958B848B86EC90E01D
:1029A000978B868B118E128E138E148E8CEB92E089
:1029B0000E949C138BE992E00E949C13E6E2F4E0F3
:1029C000E491A9E8B2E01496EC931497E9E2F4E0FC
:1029D000E4911596EC93159782E194E0FC01249123
:1029E000E22FF0E0EE0FFF1FEC5FFB4F25913491DB
:1029F00017963C932E931697E5E1F4E0E491F0E00E
:102A0000EE0FFF1FE650FC4F259134911B963C932F
:102A10002E931A97FC018491E82FF0E0EE0FFF1F30
:102A2000E051FC4F8591949119969C938E93189741
:102A300088EE92E41D969C938E931C9788E692E014
:102A40000E949C13E8E6F2E081E086838DE08583B6
:102A50000895AA1BBB1B51E107C0AA1FBB1FA617E5
:102A6000B70710F0A61BB70B881F991F5A95A9F737
:102A700080959095BC01CD010895A1E21A2EAA1B64
:102A8000BB1BFD010DC0AA1FBB1FEE1FFF1FA2171E
:102A9000B307E407F50720F0A21BB30BE40BF50B1B
:102AA000661F771F881F991F1A9469F760957095A4
:102AB000809590959B01AC01BD01CF010895EE0F6B
:102AC000FF1F0590F491E02D099481E090E0F894C7
:102AD0000C94DA1BFB01DC014150504048F001909E
:102AE0000D920020C9F701C01D9241505040E0F7FF
:102AF0000895EF920F931F93CF93DF93E80147FD63
:102B000002C034E001C034E1E42F440FFF0BF7FFB3
:102B100003C0F195E195F109E32E022F2E2FAE01AE
:102B20000E944F18CE01DF91CF911F910F91EF902E
:102B30000895FC0188279927E89421912032E9F330
:102B4000293010F02E30C8F32B3241F02D3239F4F9
:102B5000689404C00E940D16820F911D219120538C
:102B60002A30C0F31EF4909581959F4F08951F93CE
:102B7000FC0199278827BC01E89411911032E9F3F0
:102B8000193010F01E30C8F31B3251F01D3249F4D9
:102B9000689406C00E94F815610F711D811D911D7A
:102BA000119110531A30B0F33EF4909580957095C2
:102BB00061957F4F8F4F9F4F1F910895BB274A30DC
:102BC00031F4992322F4BDE2909581959F4F0C94A6
:102BD0003816BB272A3051F4992342F4BDE2909570
:102BE0008095709561957F4F8F4F9F4F0C9416166F
:102BF000592F482F372F262F660F771F881F991FB1
:102C0000660F771F881F991F620F731F841F951F00
:102C1000660F771F881F991F08957AE0979F902D60
:102C2000879F802D910D11240895BB27FA01A62FAF
:102C30006217710581059105330B30FB66F0AA27F9
:102C4000660F771F881F991FAA1FA21710F0A21BDB
:102C500063953850A9F7A05DAA3308F0A95DA19348
:102C600036F7B111B1931082CA010C94CB1ABB276D
:102C7000FB015527AA27880F991FAA1FA41710F038
:102C8000A41B83955051B9F7A05DAA3308F0A95D44
:102C9000A193009779F7B111B1931192CB010C94E4
:102CA000CB1AAEE0B0E0E7E5F6E10C94B11B8C0185
:102CB000CA014EE04C831A83098377FF02C060E0AB
:102CC00070E8FB013197FE83ED83A901BC01CE01C1
:102CD00001960E947D164D815E8157FD0AC02F81AD
:102CE0003885421753070CF49A01F801E20FF31FDD
:102CF00010822E96E4E00C94CD1BACE0B0E0E3E84B
:102D0000F6E10C94A31B7C016B018A01FC01178284
:102D10001682838181FFBDC1CE0101964C01F7016E
:102D20009381F60193FD859193FF81916F01882333
:102D300009F4ABC1853239F493FD859193FF8191FC
:102D40006F01853229F4B70190E00E94DB1AE7CFCA
:102D5000512C312C20E02032A0F48B3269F030F479
:102D6000803259F0833269F420612CC08D3239F001
:102D7000803339F4216026C02260246023C028609B
:102D800021C027FD27C030ED380F3A3078F426FFF8
:102D900006C0FAE05F9E300D1124532E13C08AE066
:102DA000389E300D1124332E20620CC08E3221F457
:102DB00026FD6BC1206406C08C3611F4206802C069
:102DC000883641F4F60193FD859193FF81916F015F
:102DD0008111C1CF982F9F7D9554933028F40C5FBB
:102DE0001F4FFFE3F9830DC0833631F0833771F055
:102DF000833509F05BC022C0F801808189830E5FB2
:102E00001F4F44244394512C540115C03801F2E063
:102E10006F0E711CF801A080B18026FF03C0652DE4
:102E200070E002C06FEF7FEFC5012C870E94C01ACF
:102E30002C0183012C852F77222E17C03801F2E058
:102E40006F0E711CF801A080B18026FF03C0652DB4
:102E500070E002C06FEF7FEFC5012C870E94B51AAA
:102E60002C012C852068222E830123FC1BC0832D7E
:102E700090E048165906B0F4B70180E290E00E9455
:102E8000DB1A3A94F4CFF50127FC859127FE819156
:102E90005F01B70190E00E94DB1A31103A94F1E033
:102EA0004F1A51084114510471F7E5C0843611F0EE
:102EB000893639F5F80127FF07C060817181828169
:102EC00093810C5F1F4F08C060817181072E000C39
:102ED000880B990B0E5F1F4F2F76722E97FF09C03C
:102EE00090958095709561957F4F8F4F9F4F20688B
:102EF000722E2AE030E0A4010E94131BA82EA8180D
:102F000044C0853729F42F7EB22E2AE030E025C058
:102F1000F22FF97FBF2E8F36C1F018F4883579F083
:102F2000B4C0803719F0883721F0AFC02F2F20614F
:102F3000B22EB4FE0DC08B2D8460B82E09C024FFC4
:102F40000AC09F2F9660B92E06C028E030E005C069
:102F500020E130E002C020E132E0F801B7FE07C016
:102F600060817181828193810C5F1F4F06C06081F7
:102F7000718180E090E00E5F1F4FA4010E94131B3F
:102F8000A82EA818FB2DFF777F2E76FE0BC0372DBD
:102F90003E7FA51450F474FE0AC072FC08C0372DA1
:102FA0003E7E05C0BA2C372D03C0BA2C01C0B52C0B
:102FB00034FF0DC0FE01EA0DF11D8081803311F454
:102FC000397E09C032FF06C0B394B39404C0832F86
:102FD000867809F0B39433FD13C030FF06C05A2C35
:102FE000B31418F4530C5B18B32CB31468F4B70182
:102FF00080E290E03C870E94DB1AB3943C85F5CFD9
:10300000B31410F43B1801C0312C34FF12C0B701C7
:1030100080E390E03C870E94DB1A3C8532FF17C0BA
:1030200031FD03C088E790E002C088E590E0B70179
:103030000CC0832F867859F031FF02C08BE201C0AB
:1030400080E237FD8DE2B70190E00E94DB1AA51403
:1030500038F4B70180E390E00E94DB1A5A94F7CF6E
:10306000AA94F401EA0DF11D8081B70190E00E945D
:10307000DB1AA110F5CF332009F451CEB70180E25D
:1030800090E00E94DB1A3A94F6CFF701868197818F
:1030900002C08FEF9FEF2C96E2E10C94BF1B4F9282
:1030A0005F926F927F929F92AF92BF92CF92DF9288
:1030B000EF92FF920F931F93CF93DF93CDB7DEB7BD
:1030C00029970FB6F894DEBF0FBECDBF6A01122F4D
:1030D000B02E2BE3201720F0FF24F394F00E02C053
:1030E000BCE3FB2E0F2D27E0AE014F5F5F4F0E9428
:1030F000DD19AC018981982F9970913031F0E1FC94
:1031000006C0E0FE06C090E205C09DE203C09BE25F
:1031100001C090E0EE2DE07183FF3CC0911102C030
:1031200083E001C084E0811718F4212F281B01C01F
:1031300020E0E1110BC0F601822F30E2882319F064
:1031400031938150FBCFC20ED11C20E0992329F08E
:10315000D6019C93F60131966F01C6010396E2FEFB
:103160000AC03EE4D6013C9341E411964C9311977A
:1031700012963C9306C03EE6F601308341E6418359
:103180003283FC01322F40E2332309F442C04193E1
:103190003150FACF82FF44C0911102C083E001C0D8
:1031A00084E0811718F4212F281B01C020E0E111D1
:1031B0000BC0F601822F30E2882319F03193815041
:1031C000FBCFC20ED11C20E0992329F0D6019C939D
:1031D000F60131966F01C6010396E2FE0BC039E499
:1031E000D6013C933EE411963C93119736E4129637
:1031F0003C9307C039E6F60130833EE6318336E67C
:103200003283FC01322F40E2332319F041933150D5
:10321000FBCFFC01E20FF11D10828EEF9FEFB7C0D4
:10322000F1E0911101C0F0E06F2F70E01416150667
:1032300024F49A012F5F3F4F02C021E030E0260FB7
:10324000371FBB2029F06B2D70E06F5F7F4F02C0EE
:1032500060E070E0260F371F612F70E026173707F8
:103260001CF4121B212F01C020E03E2D387159F4AF
:10327000D601322F60E2332319F06D933150FBCF2A
:10328000C20ED11C20E0FF2331F0D6019C93B60181
:103290006F5F7F4F6B01E1110BC0F601922F30E39E
:1032A000992319F031939150FBCFC20ED11C20E02D
:1032B0009F2D940F3A81782F7071A72E84FF03C041
:1032C000313309F49150191624F4993018F098E02C
:1032D00001C091E0E42F852F57FF02C0E0E080E0BD
:1032E0006E2F782FE0E0F0E0AEE29A2E3A01691AF4
:1032F00071082A01461A570A0B2D10E01195019505
:1033000011096F3F8FEF780729F4D6019C92C6010F
:1033100001966C014617570784F0661677066CF421
:103320007F01E40CF51CA1E0B0E0AC0FBD1FEA0E7C
:10333000FB1ED7011196BC9002C090E3B92E6150DC
:1033400071093196C60101967C016017710724F05E
:10335000D601BC926C01D5CF6417750741F43633A2
:1033600020F4353321F4A11002C081E3B82EF60118
:10337000B082F701822F90E2882319F09193815057
:10338000FBCFF701E20FF11D108280E090E029965B
:103390000FB6F894DEBF0FBECDBFDF91CF911F9166
:1033A0000F91FF90EF90DF90CF90BF90AF909F90E4
:1033B0007F906F905F904F900895283008F027E03D
:1033C0003327DA01990F311D87FD91600096610561
:1033D000710539F432602E5F3D9330E32A95E1F7B1
:1033E00008959F3F30F080387105610509F03C5F1A
:1033F0003C5F3D93913008F08068911DDF93CF933F
:103400001F930F93FF92EF92192F987F9695E92FB4
:1034100096959695E90FFF27EA5DFA4F992733278E
:10342000EE24FF24A701E70105900894079428F4EF
:10343000360FE71EF81E491F511D660F771F881FA4
:10344000991F0694A1F70590079428F4E70EF81E3B
:10345000491F561FC11D770F881F991F661F0694AD
:10346000A1F70590079428F4F80E491F561FC71FAF
:10347000D11D880F991F661F771F0694A1F705902D
:10348000079420F4490F561FC71FD81F990F661FB6
:10349000771F881F0694A9F784911095177041F043
:1034A000D695C79557954795F794E7941A95C1F720
:1034B000ECECF4E068941590159135916591959137
:1034C00005907FE27395E118F10A430B560BC90B87
:1034D000D009C0F7E10CF11E431F561FC91FD01DB4
:1034E0007EF4703311F48A95E6CFE894015030F001
:1034F000080F0AF40027021708F4202F2395022F43
:103500007A3328F079E37D932A95E9F710C07D930B
:103510002A9589F606949795679537951795179488
:10352000E118F10A430B560BC90BD00998F023950B
:103530007E9173957A3308F070E37C932013B8F78B
:103540007E9170617D9330F0839571E37D9370E39C
:103550002A95E1F71124EF90FF900F911F91CF91E1
:10356000DF91992787FD90950895FC0105906150A2
:1035700070400110D8F7809590958E0F9F1F089589
:10358000FC016150704001900110D8F78095909532
:103590008E0F9F1F0895DC01FC01672F7191772327
:1035A000E1F7329704C07C916D9370836291AE17FE
:1035B000BF07C8F308950F931F93CF93DF93FB01C9
:1035C000238121FD03C08FEF9FEF28C022FF16C08B
:1035D00046815781248135814217530744F4A081E5
:1035E000B1819D012F5F3F4F318320838C932681D2
:1035F00037812F5F3F4F3783268310C0EB01092FA0
:10360000182F0084F185E02D0995892BE1F68E8134
:103610009F8101969F838E83812F902FDF91CF9181
:103620001F910F910895FA01AA27283051F12031F6
:1036300081F1E8946F936E7F6E5F7F4F8F4F9F4F46
:10364000AF4FB1E03ED0B4E03CD0670F781F891F88
:103650009A1FA11D680F791F8A1F911DA11D6A0F56
:10366000711D811D911DA11D20D009F468943F9109
:103670002AE0269F11243019305D3193DEF6CF0108
:103680000895462F4770405D4193B3E00FD0C9F7CE
:10369000F6CF462F4F70405D4A3318F0495D31FD3B
:1036A0004052419302D0A9F7EACFB4E0A69597958E
:1036B000879577956795BA95C9F700976105710564
:1036C00008959B01AC010A2E0694579547953795AE
:1036D0002795BA95C9F7620F731F841F951FA01D08
:1036E0000895DC01CB01FC01F999FECF06C0F2BDC3
:1036F000E1BDF89A319600B40D9241505040B8F7B0
:103700000895DC01A40FB51F4150504048F0CB0193
:10371000840F951F2E910E94921B41505040D0F76C
:103720000895262FF999FECF92BD81BDF89A019791
:1037300000B4021639F01FBA20BD0FB6F894FA9AF9
:10374000F99A0FBE08952F923F924F925F926F9217
:103750007F928F929F92AF92BF92CF92DF92EF9221
:10376000FF920F931F93CF93DF93CDB7DEB7CA1BA2
:10377000DB0B0FB6F894DEBF0FBECDBF09942A88CD
:10378000398848885F846E847D848C849B84AA8475
:10379000B984C884DF80EE80FD800C811B81AA8102
:1037A000B981CE0FD11D0FB6F894DEBF0FBECDBFCD
:0837B000ED010895F894FFCF2C
:1037B800FFFF00FCE1A8A8500728077F084508225A
:1037C80008C7079B078907F208A8081F0A1809FFF6
:1037D80001940A940AFF0000E10280000000000042
:1037E8009F0E1B0E680E460E5A0EE60E4F4B0044F7
:1037F800697374616E63652053656E736F7200310F
:103808002E3000322E312E310020636D0020696E7B
:103818000050696E673A20000D0A004E41434B0084
:0238280021007D
:00000001FF
