:100000000C9462000C9475070C944E070C948A00B3
:100010000C948A000C948A000C945E050C949C0746
:100020000C948A000C948A000C948A000C948A0028
:100030000C948A000C948A000C948A000C948A0018
:100040000C9404070C948A000C94800D0C945A0DA7
:100050000C948A000C948A000C948A000C948A00F8
:100060000C948A000C948A00000000080002010031
:100070000003040700000000000000000000000072
:10008000240027002A000000000023002600290089
:1000900000000000250028002B00040404040404D0
:1000A0000404020202020202030303030303010227
:1000B00004081020408001020408102001020408F6
:1000C00010200D0F11241FBECFEFD8E0DEBFCDBF33
:1000D00011E0A0E0B1E0ECE7F1E202C005900D9282
:1000E000A03DB107D9F723E0A0EDB1E001C01D921A
:1000F000AF32B207E1F710E0C2E6D0E004C02197CA
:10010000FE010E94AB0FC136D107C9F70E944D0E08
:100110000C94BC100C94000081E09091F7019111B7
:1001200001C080E080931F0108958091E101846007
:100130008093E1018091E20180788093E201E09177
:10014000D501F091D601309709F009940895E1EEB8
:10015000F1E08081877F8F7E80831092DD01109295
:10016000DE011092DF011092E0010E94F806609318
:10017000E4017093E5018093E6019093E70143E089
:1001800050E060E070E089EF91E00C942710E0917E
:10019000D701F091D8010280F381E02D309709F06A
:1001A00009958091E10184FD0C94C50708958F9213
:1001B0009F92AF92BF92CF92DF92EF92FF920F93F6
:1001C0001F93CF93DF934B015C01042FD22F0E942A
:1001D000F8066B017C0181E0D11180E0809313036C
:1001E000C0E010E00E94F806DC01CB018C199D09EB
:1001F000AE09BF0988159905AA05BB0598F4C11178
:1002000011C0A8950E94C700E0911203E770F0E0CA
:10021000E017F10739F7C1E0809113038D1711F34F
:10022000C0E0E0CF8C2FDF91CF911F910F91FF9015
:10023000EF90DF90CF90BF90AF909F908F900895F8
:10024000FC01838187708860838384818F718062E1
:1002500084836783CF0108950F931F93CF93DF9318
:10026000EC016115710561F0FB0101900020E9F7D7
:100270003197E61BF70BE931F10518F0E9E101C010
:10028000E0E00E2F10E0C80123E0880F991F2A95A7
:10029000E1F79B819770892B8B838C818F718C8385
:1002A000EE2329F0A801CE0107960E94B60FFE01A9
:1002B000E00FF11F1782CE01DF91CF911F910F91B7
:1002C000089591E59CBD91E09DBD2A98E3E2F0E0A0
:1002D0003197F1F78EBD00000DB407FEFDCF8EB54E
:1002E000FB019FEF4150C8F0222361F09EBD00004A
:1002F0000DB407FEFDCF8EB56115710599F38083AE
:100300003196F0CFDF01119680818EBD00000DB4D3
:1003100007FEFDCF8EB5FD01E5CF2A9AE3E2F0E0BE
:100320003197F1F70895CF9321E041E060E070E06C
:1003300086E00E946101C82F21E041E060E070E0AA
:1003400085E00E94610121E08C3409F020E081E029
:10035000C73209F080E08223CF910895CF93DF93D5
:100360001F92CDB7DEB7698320E041E0BE016F5F29
:100370007F4F0E9461010F90DF91CF9108956FE050
:1003800080E20E94AE01609118016F3F19F08AE28D
:100390000E94AE01299A08958091E201982F9077EA
:1003A000903759F0982F92959F709F5F9770929514
:1003B000907F8F78892B8093E2018091E1018B7F80
:1003C0008F7E8093E10180E090E0892B21F087E629
:1003D00090E00E94000029986CE080E20C94AE014D
:1003E00020E040E060E070E00C9461010F931F9307
:1003F000CF93DF938C01FC01C2818091E10180FFEA
:1004000004C0CF3F09F05DC014C0C11103C0C0914A
:10041000FA010FC0CF3F69F08C2F90E003960E9445
:1004200037108F3F29F48091FA01F80190819813D9
:10043000C82F8091F901F8018083438142FD06C0F5
:10044000469546954695D7E0D40F01C0D0E280E0AE
:1004500090E0892B21F080E090E00E940000299834
:1004600083E092E00197F1F76EE080E20E94AE0136
:100470008BE891E00197F1F76C2F8AE20E94AE01C0
:100480006C2F80E30E94AE0181EE0E94F001CF3F0D
:1004900011F080EA01C080EB4D2FD13208F040E22C
:1004A00020E0B8010E946101299A00E010E08FEF7E
:1004B0000E94F001D82F807331F401501109B9F76F
:1004C00002C0D0E02FC0299860E387E20E94AE010D
:1004D000D4FF03C081EE0E94F0010E94BF01D5FB52
:1004E000DD27D0F991E0CF3F09F090E0D92B809142
:1004F000FA01C81317C0D11110C080E090E0892B19
:1005000021F085E690E00E9400008091E20191E0F8
:10051000980F9F70807F892B03C08091E201807FBC
:100520008093E2018D2FDF91CF911F910F9108955C
:100530002091E10122FD0C94F60180E008952BE06A
:1005400043E06FEF80E00E94A60B6DE371E00E9434
:100550002C010E9498022CE043E06FEF80E00E94A3
:10056000A60B64E471E00E942C010E94980248E40A
:1005700051E06FE081E00E94F80B46E551E060E059
:1005800083E00C94F80BCF9380E090E0892B21F06E
:100590008CE090E00E9400002FE043E06FEF80E0ED
:1005A0000E94A60B63E871E00E942C018091F0028A
:1005B000877080618093F0028091F1028F71806C6E
:1005C0008093F10281E08093F4021092F5028DEEA7
:1005D00092E00E9498022FE043E060ED77E080E037
:1005E00090E00E94D70043E851E062E18FEF0E9463
:1005F000F80BC091FA0126E043E06FEF80E00E9423
:10060000A60B6C2F0E9420010E94980226E043E076
:1006100060ED77E080E090E00E94D700CF910C94ED
:100620009F02CF938091F80181FD2CC00E94C302EC
:1006300080E090E0892B21F089E090E00E940000AA
:100640008091F80181608093F801C4E02AE143E0E1
:100650006FEF80E00E94A60B62E00E9420010E94E2
:1006600098022BE143E060ED77E080E090E00E94AB
:10067000D700811102C0C15049F78091F801826012
:100680008093F801CF91089580E090E0892B21F0CC
:1006900088E090E00E9400008FEF8093E30180915A
:1006A000E10188608093E10128E143E06FEF80E0A1
:1006B0000E94A60B61E00E9420010C94F60180913B
:1006C000F9018F3FA1F480E090E0892B21F086E0D2
:1006D00090E00E94000023E043E06FEF80E00E9482
:1006E000A60B63E871E00E942C010C94F6010895BA
:1006F00080E090E0892B21F084E090E00E940000EF
:100700008091E101897F81608093E1018FEF809387
:10071000FB018093FA0127E043E06FEF0E94A60BF4
:1007200063E871E00E942C010C94F6010F931F9373
:100730000E94F8060091D9011091DA012091DB01A5
:100740003091DC01601B710B820B930B1F910F9199
:1007500008959C018091D7019091D8018217930749
:1007600051F09091E1019F719093E1013093D80194
:100770002093D70105C08091E101805E8093E10163
:10078000E091D701F091D8010190F081E02D3097F0
:1007900009F009950E94F8066093D9017093DA0177
:1007A0008093DB019093DC0108950F931F930E94C7
:1007B00096032091E2012077203729F000E117E22B
:1007C00020E030E004C000E61AEE20E030E006173A
:1007D00017072807390730F489E191E01F910F913D
:1007E0000C94A9031F910F9108958091E2018F70DD
:1007F0008B3020F084E191E00C94A903089580915E
:10080000E3018F3FA1F00E94F8066093DD01709331
:10081000DE018093DF019093E0018091E3019091EC
:10082000FB0189138093FB0180E191E01BC00E94D2
:100830009603613D774081059105B0F08091E1011B
:10084000803618F48CE091E00DC0877F8093E10141
:1008500080E090E0892B21F08AE690E00E94000081
:1008600084E191E00C94A90308958091F9018F3FF0
:1008700059F080E090E0892B21F087E090E00E9421
:1008800000008CE091E018C00E949603613D774023
:100890008105910598F08091E101803618F488E097
:1008A00091E00AC080E090E0892B21F089E690E099
:1008B0000E94000081E291E00C94A90308950E9437
:1008C0009603613D77408105910520F48091E10117
:1008D00081FF08958091FA018F3F81F08091E101BD
:1008E0008E7F8093E10180E090E0892B21F085E00C
:1008F00090E00E94000088E091E011C08091E10149
:10090000803618F484E191E00AC080E090E0892B01
:1009100021F088E690E00E94000081E291E00C94D2
:10092000A903CF93219A229ACFB7F8948091D4014A
:10093000811124C0E4EAF0E08491E8EBF0E09491C6
:10094000E82FF0E0EE0FFF1FE458FF4FA591B491A0
:10095000EC91E92321F461E08AE00E94B20D8AE083
:100960000E94B50B8CB580618CBD8CB580648CBD4C
:100970008DE00E94B50B8BE00E94B50B8091D401F5
:100980008F5F8093D401CFBF29982A9A6EE080E2CE
:100990000E94AE0165E070E080E090E00E94FE0DF4
:1009A00063E083E20E94AE016FE584E20E94AE0143
:1009B0006CE485E20E94AE0167E286E20E94AE012D
:1009C00063E780E50E94AE0166E08DE30E94AE0120
:1009D0000E949301882309F468C062E082E20E94C9
:1009E000AE0160E081E20E94AE0163E08CE30E9410
:1009F000AE018FEF8093030120E045E063E071E0FA
:100A00008BE20E94610120E045E063E071E08AE250
:100A10000E94610120E045E063E071E080E30E9414
:100A2000610182EE0E94F00181EE0E94F00160E718
:100A300087E20E94AE018091E10180618093E10133
:100A40008AE08093F9016AE080E090E00E944F1014
:100A5000C091F901CF3F21F18FEF8C0F8E3F90F4C1
:100A6000C093180163E082E20E94AE0161E081E27E
:100A70000E94AE010E94BF016C2F80E090E00E94B6
:100A80004F100EC080E090E0892B21F08EE690E0C0
:100A90000E9400008FEF8093F90181E291E002C093
:100AA00084E191E0CF910C94A90380E090E0892B40
:100AB000A1F387E690E00E940000EFCF1F920F9213
:100AC0000FB60F9211240F900FBE0F901F90189524
:100AD0000895CF93DF93EC018C8184FF08C085E6F5
:100AE00091E00E940D0C81E891E00E940D0C8D8137
:100AF0008A3009F074C08C81829586958770823027
:100B000021F40F80D885C02D0AC0811106C0CE0106
:100B100007960E94C50FEC0102C0C0E0D0E084E857
:100B200091E00E940D0CCE010E941F0C81E891E023
:100B30000E940D0CC230D10519F580919D028F7174
:100B4000806480939D0280919C0287708061809375
:100B50009C02D093A102C093A00289E992E00E9476
:100B6000E70B61E083E00E94B20D6AEF70E080E085
:100B700090E00E94FE0D60E083E00E94B20D2BC069
:100B8000C130D10561F580919D028F7180648093A1
:100B90009D0280919C028770806180939C02D0931B
:100BA000A102C093A00289E992E00E94E70B61E0F4
:100BB00083E00E94B20D68EE73E080E090E00E9456
:100BC000FE0D60E083E00E94B20D9091200181E073
:100BD0008927809320011092EB011092EA01DF91A6
:100BE000CF910895CF93DF9380911F01882339F02F
:100BF0000E949A0CFC014C9669E370E007C00E94C9
:100C00009A0CFC01875B9F4F62E970E00E94970F8E
:100C100021E030E0EF2B11F420E030E0CB0162174F
:100C2000730708F4C9018431910538F0EC018F3B5A
:100C300091052CF0CEEBD0E002C0C4E1D0E0CE01B3
:100C40000D2E000CAA0BBB0B9C01AD0124513109E8
:100C500041095109A4E6B0E00E9480102AEA30E080
:100C600040E050E00E94611030931E0120931D016E
:100C70008091E8019091E90182179307E9F03093A0
:100C8000E9012093E8018091BE028F718064809316
:100C9000BE028091BD02877080618093BD02309357
:100CA000C2022093C1028AEB92E00E94E70B1092ED
:100CB000EB011092EA0109C08091EA019091EB01E9
:100CC00001969093EB018093EA0120E043E06FEFFF
:100CD00080E00E94A60B64E60E9420010E94980218
:100CE0008091EA019091EB010B97BCF081E0809339
:100CF000200180919D028F71806480939D0280917C
:100D00009C028770806180939C021092A1021092D5
:100D1000A00289E992E00E94E70B8BE991E00E9432
:100D20000D0CCE010E941F0C80911F01811103C088
:100D300086E991E002C081E991E00E940D0C82EA0F
:100D400091E00E940D0C80911D0190911E010E9466
:100D50001F0C81EB91E00E940D0C8091EA019091B3
:100D6000EB010E941F0C8CEB91E00E940D0C809116
:100D7000200190E00E941F0C81E891E00E940D0C80
:100D8000809120012AE041E0882329F060E177E2A8
:100D900080E090E004C064EF71E080E090E0DF91DB
:100DA000CF910C94D7003FB7F8948091F3019091C4
:100DB000F401A091F501B091F60126B5A89B05C0FC
:100DC0002F3F19F00196A11DB11D3FBFBA2FA92FCA
:100DD000982F8827820F911DA11DB11DBC01CD0147
:100DE00042E0660F771F881F991F4A95D1F7089533
:100DF0002FB7F8946091EF017091F0018091F101AB
:100E00009091F2012FBF08951F920F920FB60F928B
:100E100011242F933F938F939F93AF93BF93809110
:100E2000EF019091F001A091F101B091F2013091A8
:100E3000EE0123E0230F2D3720F40196A11DB11DF3
:100E400005C026E8230F0296A11DB11D2093EE01D7
:100E50008093EF019093F001A093F101B093F20120
:100E60008091F3019091F401A091F501B091F60108
:100E70000196A11DB11D8093F3019093F401A093FD
:100E8000F501B093F601BF91AF919F918F913F9182
:100E90002F910F900FBE0F901F9018951F920F92D9
:100EA0000FB60F9211242F933F934F935F936F933D
:100EB0007F938F939F93AF93BF93EF93FF93E091B3
:100EC0002701F09128010995FF91EF91BF91AF9112
:100ED0009F918F917F916F915F914F913F912F9152
:100EE0000F900FBE0F901F9018951F920F920FB684
:100EF0000F9211242F933F934F935F936F937F93A0
:100F00008F939F93AF93BF93EF93FF93E09125014E
:100F1000F09126010995FF91EF91BF91AF919F91BB
:100F20008F917F916F915F914F913F912F910F9092
:100F30000FBE0F901F9018951F920F920FB60F9231
:100F400011242F933F934F935F936F937F938F93CE
:100F50009F93AF93BF93EF93FF93E091EC01F091D8
:100F6000ED01309709F00995FF91EF91BF91AF9195
:100F70009F918F917F916F915F914F913F912F91B1
:100F80000F900FBE0F901F9018954F925F926F9227
:100F90007F928F929F92AF92BF92CF92DF92EF9209
:100FA000FF920F931F93CF93DF930E94F806009157
:100FB000E4011091E5012091E6013091E701DC01A7
:100FC000CB01801B910BA20BB30B813A9B4BAD4025
:100FD000B10590F00E94F8066093E4017093E5017A
:100FE0008093E6019093E7010E949301811104C070
:100FF00081E291E00E94A90386E0B82E90E0E92EFC
:1010000090E0F92E20E0C22E20E0D22E31E2A32E75
:1010100021E041E060E070E087E10E94610180FD35
:101020008BC2BA94BB2009F487C2E114F10421F009
:1010300081E090E00E94000021E041E060E070E08B
:1010400080E60E946101082F813220F082EE0E942A
:10105000F00100E021E0402F6EE073E081E60E94A5
:10106000610160E487E20E94AE0190911103192FA3
:101070001695169516951A3108F019E192FD03C0E0
:1010800087E0810F01C080E270901203C0911303CA
:10109000D0910F0390900E0380901003081739F041
:1010A000E114F10409F4B4CF8CE690E009C0937028
:1010B000923049F0E114F10409F4AACF8DE690E0F2
:1010C0000E940000A5CF8091FA01981651F08091FE
:1010D000F901D81731F08D2F90E0692D03960E9409
:1010E0004F10072D07708091E20180688093E20124
:1010F0008091F90188124DC020911103822F8695AD
:10110000869586958A3108F089E138E0839FC00191
:1011100011242770822B80931103E12FF0E0E25F0E
:10112000FC4F17828091120383FF17C0EEE0F3E0BB
:10113000ADEEB2E08A2D01900D928A95E1F7809193
:10114000F102877F80618093F1028092EE02D0935A
:10115000EF028DEE92E00E9498028091120384FDCE
:1011600013C0033089F49091130321EF290F23302A
:1011700008F0B9C04DCF913009F44FC19A3009F44D
:101180006BC19C3109F444CF8EE093E00E94690565
:101190003FCF2FEF82128FC0033009F07EC08091C5
:1011A000E10182FF5DC0C73009F05AC08091FA01A9
:1011B000D81709F42DCF0E94F8060091DD01109197
:1011C000DE012091DF013091E001DC01CB01801BC9
:1011D000910BA20BB30B80319742A105B10518F119
:1011E0008091E10183FD14CF9091F90191115CC1CF
:1011F0001092E3018091E101877F8093E101C0912A
:10120000E301CF3F09F404CF0E94F8066093DD01AB
:101210007093DE018093DF019093E0018091FB01E8
:10122000C813C093FB010E94F8066093DD01709320
:10123000DE018093DF019093E0010E94F806737055
:10124000882799270E94FE0DC091FB0128E043E00A
:101250006FEF8D2F0E94A60B6C2F0E94200140C0C3
:10126000C83009F4D5CEC431C1F48091FA01981286
:1012700014C00E94F8067370882799270E94FE0DFB
:10128000C091FA0125E143E06FEF8D2F0E94A60B7C
:101290006C2F0E9420010E94F6018091FA019812A1
:1012A000B7CE8091F901D81709F442C18091E101CC
:1012B00082FD32C13DC18091E10182FFA9CE0330A0
:1012C00069F4C851C23050F40E94D40B8E3F31F003
:1012D00061E0680F8EE093E00E9420018EE093E0D1
:1012E0000E94F60195CEC43009F492CEC830C9F4FC
:1012F000C091E101C0FF8CCE0E94D40B8F3F09F456
:1013000087CE8F5F8F3F09F483CE9091FB018917C1
:1013100008F07ECEC1FD7CCE8093FB01D093FA0114
:1013200077CEC83141F429E143E06FEF8D2F0E9461
:10133000A60B61E092CFC93161F48091E10183FF96
:1013400067CE877F8093E1010E94D40B8093E301F5
:101350005FCE20910F032111A3C09D3099F480E04E
:1013600090E0892B21F08BE090E00E94000098E053
:1013700088E10FB6F894A895809360000FBE909313
:101380006000FFCF9B3199F40E94D40B91E0811152
:1013900001C090E08091F80190FB80F98093F80102
:1013A000E114F10409F434CE8AE090E089CE96305D
:1013B00099F49091150381E0992319F09D3409F077
:1013C00080E08093F70141E050E063E071E087EF57
:1013D00091E00E943F101CCE933119F40E94C30289
:1013E00017CE923109F0C7CE0E9496032B013C0123
:1013F00026E143E06FEF80E00E94A60BFC018481B0
:101400008F71806A8483838187708062838347823F
:10141000508661867286CF0140C0C114D10409F4A0
:10142000F7CD829586958770853049F460911503D4
:101430007091160380911703909118030AC08111CF
:1014400005C085E193E00E94E30F03C060E070E017
:10145000CB010E940000DCCD80911503833409F09C
:10146000D7CDE114F10421F08DE090E00E9400005E
:10147000C3E0D0E06FEFCE010E944F102196C33041
:1014800081E0D807B9F72AE043E06FEF80E00E94DF
:10149000A60B66EC71E00E942C010E949802B8CD68
:1014A0009A3109F071CEB4CD88608093E1018092C9
:1014B000E30128E143E06FEF80E00E94A60B61E0CA
:1014C0000E9420010E94F6010E94F8062B013C01B7
:1014D00010921303C0E00E94F806DC01CB018419CE
:1014E0009509A609B709803D9740A105B10508F007
:1014F00081CEC1117FCE8091E10184FD0E94C5079C
:10150000A895809112038770833029F7C1E08091FC
:1015100013038931F9F6DFCF8EE093E00E94F601E4
:10152000033009F475CD8091FA01981271CD2CCE5B
:10153000033009F029CE6CCDDF91CF911F910F912F
:10154000FF90EF90DF90CF90BF90AF909F908F90E3
:101550007F906F905F904F900895CF92DF92EF92BF
:10156000FF920F931F93CF93DF936C017A018B014E
:10157000C0E0D0E0CE15DF0589F0D8016D918D0176
:10158000D601ED91FC910190F081E02DC601099505
:10159000892B11F47E0102C02196ECCFC701DF91A7
:1015A000CF911F910F91FF90EF90DF90CF90089512
:1015B000FC01918D828D981761F0828DDF01A80F5B
:1015C000B11D5D968C91928D9F5F9F73928F90E07D
:1015D00008958FEF9FEF0895FC01918D828D9817EC
:1015E00031F0828DE80FF11D858D90E008958FEF29
:1015F0009FEF0895FC01918D228D892F90E0805CF2
:101600009F4F821B91098F73992708958CEF91E06A
:101610000E94FA0A21E0892B09F420E0822F089524
:10162000FC01848DDF01A80FB11DA35ABF4F2C917F
:10163000848D90E001968F739927848FA689B7894E
:101640002C93A089B1898C9180648C93938D848D27
:10165000981306C00288F389E02D80818F7D8083F6
:101660000895EF92FF920F931F93CF93DF93EC01B6
:1016700081E0888F9B8D8C8D981305C0E889F9894E
:10168000808185FD24C0F62E0B8D10E00F5F1F4F6B
:101690000F731127E02E8C8DE8120CC00FB607FCDB
:1016A000FACFE889F989808185FFF5CFCE010E94C4
:1016B000100BF1CF8B8DFE01E80FF11DE35AFF4FA8
:1016C000F0820B8FEA89FB898081806207C0EE89F6
:1016D000FF896083E889F98980818064808381E063
:1016E00090E0DF91CF911F910F91FF90EF900895BF
:1016F000CF93DF93EC01888D8823C9F0EA89FB89B9
:10170000808185FD05C0A889B9898C9186FD0FC0AF
:101710000FB607FCF5CF808185FFF2CFA889B98984
:101720008C9185FFEDCFCE010E94100BE7CFDF91AA
:10173000CF91089580E090E0892B29F00E94060B5C
:1017400081110C94000008950E94B10FEDEEF2E0BB
:101750009091F90191838283668325834770848108
:10176000807E482B4483CF01089590E0FC01E25530
:10177000FF4F2491FC01E656FF4F8491882399F096
:1017800090E0880F991FFC01E458FF4FA591B49198
:10179000FC01E057FF4F859194918FB7F894EC913D
:1017A000E22BEC938FBF089580911203829586956A
:1017B0008770813019F4809115030895811105C057
:1017C00085E193E00E94C50F089580E00895FC0133
:1017D0008091F90181839481907F916094838091BD
:1017E000F80180FF03C0CF010C94980280E00895B7
:1017F000CF93DF93262F8F3F11F0EA0102C0C9EC8F
:10180000D1E040E0682F80E00E94A60BBE010E945C
:101810002C01DF91CF910C949802009769F0FC01A4
:1018200001900020E9F73197AF01481B590BBC012B
:101830008CEF91E00C94AD0A80E090E008958F92D7
:101840009F92AF92BF92CF92DF92EF92FF920F934F
:101850001F93CF93DF93CDB7DEB7A1970FB6F89460
:10186000DEBF0FBECDBF6C01990FEE08FF08F7FE7B
:1018700031C0E091FC01F091FD010190F081E02D7B
:101880006DE28CEF91E009958C0122273327A901A5
:101890002C193D094E095F0919A2CE0181967C01E0
:1018A0009AE0892E912CA12CB12CCA01B901A50175
:1018B00094010E948B10605DF70162937F012115F6
:1018C00031054105510589F7CF010E940D0C800FAC
:1018D000911F1DC0A701960119A28E010F5D1F4F18
:1018E0008AE0C82ED12CE12CF12CCA01B901A70144
:1018F00096010E948B10605DF80162938F012115A3
:1019000031054105510589F7CF010E940D0CA196C3
:101910000FB6F894DEBF0FBECDBFDF91CF911F9100
:101920000F91FF90EF90DF90CF90BF90AF909F907E
:101930008F9008950F931F93E091E302F091E402DA
:1019400090818091DF02892B8083E091E102F09108
:10195000E20290818091DF028095892380838BE071
:1019600090E00197F1F7E091E102F091E2029081BD
:101970008091DF02892B808383E290E00197F1F769
:10198000E091E102F091E20290818091DF02809586
:1019900089238083E091E302F091E40290818091B9
:1019A000DF028095892380830E94D306DC01CB016E
:1019B000805B994BAF4FBF4F8093E9029093EA024F
:1019C000A093EB02B093EC02E091E502F091E60205
:1019D00090818091E0028923F9F00E94D306009162
:1019E000E9021091EA022091EB023091EC02061715
:1019F00017072807390740F70FC00E94D306009148
:101A0000E9021091EA022091EB023091EC020617F4
:101A1000170728073907A8F1E091E502F091E602DF
:101A200090818091E002892341F30E94D3062091A6
:101A3000E7023091E802DC01CB01820F931FA11D68
:101A4000B11D8093E9029093EA02A093EB02B09358
:101A5000EC02E091E502F091E60290818091E002D3
:101A6000892391F00E94D3060091E9021091EA02C5
:101A70002091EB023091EC0206171707280739076F
:101A800040F780E090E013C00E94D3062091E70267
:101A90003091E802A901455051092091E9023091A5
:101AA000EA02FA01E21BF30BCF01860F971F1F9189
:101AB0000F9108951F920F920FB60F9211242F933A
:101AC0003F934F935F936F937F938F939F93AF93C6
:101AD000BF93EF93FF938CEF91E00E94100BFF9167
:101AE000EF91BF91AF919F918F917F916F915F9196
:101AF0004F913F912F910F900FBE0F901F9018950F
:101B00001F920F920FB60F9211242F938F939F93D2
:101B1000EF93FF93E0910C02F0910D028081E09130
:101B20001202F091130282FD12C090818091150281
:101B30008F5F8F7320911602821751F0E09115028A
:101B4000F0E0E450FE4F958F8093150201C0808134
:101B5000FF91EF919F918F912F910F900FBE0F905A
:101B60001F90189590E0FC01E859FF4F3491FC015B
:101B7000E255FF4F2491FC01E656FF4FE491EE231E
:101B800009F43BC0332339F1333091F038F431306C
:101B9000A9F0323001F584B58F7D12C0373091F055
:101BA0003830A1F03430B9F4809180008F7D03C0CB
:101BB000809180008F77809380000DC084B58F77EF
:101BC00084BD09C08091B0008F7703C08091B000C0
:101BD0008F7D8093B000F0E0EE0FFF1FE057FF4FC6
:101BE000A591B4918FB7F894EC91611103C0209541
:101BF0002E2301C02E2B2C938FBF08958F929F927E
:101C0000AF92BF92CF92DF92EF92FF926B017C0175
:101C10000E94D3064B015C01C114D104E104F1041C
:101C2000F1F00E94D306DC01CB0188199909AA09B9
:101C3000BB09883E9340A105B10570F321E0C21AAB
:101C4000D108E108F10888EE880E83E0981EA11CF7
:101C5000B11CC114D104E104F10419F7DDCFFF90E8
:101C6000EF90DF90CF90BF90AF909F908F900895AE
:101C7000CF93DF93FC0110821182128214821582AD
:101C80001682DC0117968AE1ED0119928A95E9F72F
:101C900082E08383DF91CF910895789484B5826048
:101CA00084BD84B5816084BD85B5826085BD85B500
:101CB000816085BD80916E00816080936E0010927E
:101CC00081008091810082608093810080918100F9
:101CD000816080938100809180008160809380008A
:101CE0008091B10084608093B1008091B0008160E8
:101CF0008093B00080917A00846080937A00809114
:101D00007A00826080937A0080917A00816080936B
:101D10007A0080917A00806880937A001092C100E6
:101D2000A89580E090E0892B11F00E940000E091DE
:101D30000C02F0910D0282E08083E0910802F091A4
:101D400009021082E0910A02F0910B0280E1808387
:101D500010921402E0911002F091110286E080834B
:101D6000E0910E02F0910F02808180618083E0910A
:101D70000E02F0910F02808188608083E0910E0254
:101D8000F0910F02808180688083E0910E02F091D3
:101D90000F0280818F7D80838091F8018D7F8093F9
:101DA000F80180E090E0892B11F00E94000041E0F2
:101DB00050E063E071E087EF91E00E9427106FEF41
:101DC00081E090E00E944F108091E2018F78809333
:101DD000E2011092D8011092D70189E191E00E94AE
:101DE000A90381E193E09093D6018093D5010E94ED
:101DF000F8060E94F8060E94C700A8958091E101AC
:101E000082FFF7CF0E948C00A895A8950E94C7007A
:101E10000E94F2050E949A0BF8CFCF93ECEFF1E00D
:101E20001382128288EE93E0A0E0B0E08483958371
:101E3000A683B78381E391E09183808385EC90E072
:101E40009587848784EC90E09787868780EC90E084
:101E5000918B808B81EC90E0938B828B82EC90E075
:101E6000958B848B86EC90E0978B868B118E128EEF
:101E7000138E148E8EE093E00E94380E8DEE92E069
:101E80000E94380EE2EBF0E0E491ABEDB2E0149684
:101E9000EC931497E5EBF0E0E4911596EC9315972D
:101EA0008EE990E0FC012491E22FF0E0EE0FFF1F9D
:101EB000E057FF4F2591349117963C932E93169738
:101EC000E1EAF0E0E491F0E0EE0FFF1FEA57FF4F88
:101ED000259134911B963C932E931A97FC01849183
:101EE000E82FF0E0EE0FFF1FE458FF4F859194912B
:101EF00019969C938E93189788EE92E41D969C9366
:101F00008E931C978AEB92E00E94380EEAEBF2E087
:101F100081E08683C3E0C58389E992E00E94380EA0
:101F2000E9E9F2E0C6838AE08583CF910895AA1B90
:101F3000BB1B51E107C0AA1FBB1FA617B70710F0B4
:101F4000A61BB70B881F991F5A95A9F780959095E6
:101F5000BC01CD010895EE0FFF1F0590F491E02D17
:101F6000099481E090E0F8940C94BC10FB01DC0132
:101F70004150504048F001900D920020C9F701C037
:101F80001D9241505040E0F70895FC0188279927A1
:101F9000E89421912032E9F3293010F02E30C8F373
:101FA0002B3241F02D3239F4689404C00E941F1086
:101FB000820F911D219120532A30C0F31EF4909579
:101FC00081959F4F08951F93FC0199278827BC0195
:101FD000E89411911032E9F3193010F01E30C8F373
:101FE0001B3251F01D3249F4689406C00E940A1059
:101FF000610F711D811D911D119110531A30B0F3A5
:102000003EF490958095709561957F4F8F4F9F4FCF
:102010001F910895592F482F372F262F660F771FAE
:10202000881F991F660F771F881F991F620F731FE4
:10203000841F951F660F771F881F991F08957AE0E8
:10204000979F902D879F802D910D11240895DC017D
:10205000CB01FC01F999FECF06C0F2BDE1BDF89AB3
:10206000319600B40D9241505040B8F70895F99957
:10207000FECF92BD81BDF89A992780B50895DC0105
:10208000A40FB51F4150504048F0CB01840F951F5D
:102090002E910E94501041505040D0F70895262FA5
:1020A000F999FECF92BD81BDF89A019700B402164E
:1020B00039F01FBA20BD0FB6F894FA9AF99A0FBEFC
:1020C0000895052E97FB1EF400940E94781057FD8A
:1020D00007D00E948B1007FC03D04EF40C947810AC
:1020E00050954095309521953F4F4F4F5F4F089544
:1020F00090958095709561957F4F8F4F9F4F089574
:102100000E94AD10A59F900DB49F900DA49F800DCF
:10211000911D11240895A1E21A2EAA1BBB1BFD01DB
:102120000DC0AA1FBB1FEE1FFF1FA217B307E407B6
:10213000F50720F0A21BB30BE40BF50B661F771F0E
:10214000881F991F1A9469F76095709580959095EE
:102150009B01AC01BD01CF010895A29FB001B39FC7
:10216000C001A39F700D811D1124911DB29F700DA0
:0C217000811D1124911D0895F894FFCFEB
:10217C00FFFFFF00FCE1A8A85F0335044403FF0345
:10218C009500F50378035F04FFA700910464000138
:10219C0001CC01D5036805680501000000000000B2
:1021AC0000310BAD0AFA0AD80AEC0A780B476172B7
:1021BC0061676500312E3000446F6F7220706F7351
:1021CC006974696F6E00537769746368206D657309
:1021DC0073616765005468697320697320616E20B0
:1021EC0061636B2066726F6D2067617465776179CE
:1021FC00000D0A00476F74204D6573736167653A73
:10220C000020636D200020696E200050696E673AD3
:10221C002000446F6F7220506F736974696F6E2069
:10222C000020436F756E7465723A2000204973204C
:10223C0049646C653A004F4B00322E312E31000050
:00000001FF
